{
  "address": "0xc20022b963353a80D211021519fb02AE429ec003",
  "abi": [
    {
      "inputs": [
        {
          "internalType": "uint256",
          "name": "_entranceFee",
          "type": "uint256"
        },
        {
          "internalType": "address",
          "name": "vRFConsumerBaseV2",
          "type": "address"
        },
        {
          "internalType": "bytes32",
          "name": "_keyHash",
          "type": "bytes32"
        },
        {
          "internalType": "uint256",
          "name": "_s_subscriptionId",
          "type": "uint256"
        },
        {
          "internalType": "uint32",
          "name": "_callbackGasLimit",
          "type": "uint32"
        },
        {
          "internalType": "uint256",
          "name": "_interval",
          "type": "uint256"
        }
      ],
      "stateMutability": "nonpayable",
      "type": "constructor"
    },
    {
      "inputs": [],
      "name": "Lottery_Insufficient_ETH_Balance",
      "type": "error"
    },
    {
      "inputs": [],
      "name": "Lottery_LotteryStateNotOpen",
      "type": "error"
    },
    {
      "inputs": [
        {
          "internalType": "uint256",
          "name": "balance",
          "type": "uint256"
        },
        {
          "internalType": "uint256",
          "name": "numberOfPlayers",
          "type": "uint256"
        },
        {
          "internalType": "uint256",
          "name": "lotteryState",
          "type": "uint256"
        }
      ],
      "name": "Lottery_UpkeepNotNeeded",
      "type": "error"
    },
    {
      "inputs": [],
      "name": "Lottery_WinnerTransferFailed",
      "type": "error"
    },
    {
      "inputs": [
        {
          "internalType": "address",
          "name": "have",
          "type": "address"
        },
        {
          "internalType": "address",
          "name": "want",
          "type": "address"
        }
      ],
      "name": "OnlyCoordinatorCanFulfill",
      "type": "error"
    },
    {
      "anonymous": false,
      "inputs": [
        {
          "indexed": true,
          "internalType": "address",
          "name": "player",
          "type": "address"
        }
      ],
      "name": "NewLotteryPlayer",
      "type": "event"
    },
    {
      "anonymous": false,
      "inputs": [
        {
          "indexed": false,
          "internalType": "uint256",
          "name": "requestedId",
          "type": "uint256"
        }
      ],
      "name": "RequestedRandomNumberId",
      "type": "event"
    },
    {
      "anonymous": false,
      "inputs": [
        {
          "indexed": true,
          "internalType": "address",
          "name": "winner",
          "type": "address"
        }
      ],
      "name": "Winner",
      "type": "event"
    },
    {
      "inputs": [
        {
          "internalType": "bytes",
          "name": "",
          "type": "bytes"
        }
      ],
      "name": "checkUpkeep",
      "outputs": [
        {
          "internalType": "bool",
          "name": "upkeepNeeded",
          "type": "bool"
        },
        {
          "internalType": "bytes",
          "name": "",
          "type": "bytes"
        }
      ],
      "stateMutability": "nonpayable",
      "type": "function"
    },
    {
      "inputs": [],
      "name": "getEntranceFee",
      "outputs": [
        {
          "internalType": "uint256",
          "name": "",
          "type": "uint256"
        }
      ],
      "stateMutability": "view",
      "type": "function"
    },
    {
      "inputs": [],
      "name": "getInterval",
      "outputs": [
        {
          "internalType": "uint256",
          "name": "",
          "type": "uint256"
        }
      ],
      "stateMutability": "view",
      "type": "function"
    },
    {
      "inputs": [],
      "name": "getLotteryState",
      "outputs": [
        {
          "internalType": "enum Lottery.LotteryState",
          "name": "",
          "type": "uint8"
        }
      ],
      "stateMutability": "view",
      "type": "function"
    },
    {
      "inputs": [],
      "name": "getNumberOfPlayers",
      "outputs": [
        {
          "internalType": "uint256",
          "name": "",
          "type": "uint256"
        }
      ],
      "stateMutability": "view",
      "type": "function"
    },
    {
      "inputs": [
        {
          "internalType": "uint256",
          "name": "index",
          "type": "uint256"
        }
      ],
      "name": "getPlayer",
      "outputs": [
        {
          "internalType": "address",
          "name": "",
          "type": "address"
        }
      ],
      "stateMutability": "view",
      "type": "function"
    },
    {
      "inputs": [],
      "name": "getPlayers",
      "outputs": [
        {
          "internalType": "address payable[]",
          "name": "",
          "type": "address[]"
        }
      ],
      "stateMutability": "view",
      "type": "function"
    },
    {
      "inputs": [],
      "name": "getWinner",
      "outputs": [
        {
          "internalType": "address",
          "name": "",
          "type": "address"
        }
      ],
      "stateMutability": "view",
      "type": "function"
    },
    {
      "inputs": [],
      "name": "joinLottery",
      "outputs": [],
      "stateMutability": "payable",
      "type": "function"
    },
    {
      "inputs": [
        {
          "internalType": "bytes",
          "name": "",
          "type": "bytes"
        }
      ],
      "name": "performUpkeep",
      "outputs": [],
      "stateMutability": "nonpayable",
      "type": "function"
    },
    {
      "inputs": [
        {
          "internalType": "uint256",
          "name": "requestId",
          "type": "uint256"
        },
        {
          "internalType": "uint256[]",
          "name": "randomWords",
          "type": "uint256[]"
        }
      ],
      "name": "rawFulfillRandomWords",
      "outputs": [],
      "stateMutability": "nonpayable",
      "type": "function"
    }
  ],
  "transactionHash": "0x9bd96abaef03002f573af5d91f690066fee744b6d3c5eaa2ee610736e3e515fc",
  "args": [
    "10000000000000000",
    "0xD7f86b4b8Cae7D942340FF628F82735b7a20893a",
    "0x787d74caea10b2b357790d5b5247c2f63d1d91572a9846f780606e4d953677ae",
    "100915921913514107004269578386674000694183124832035076417538392781260567052388",
    "500000",
    "30"
  ],
  "numDeployments": 1,
  "solcInputHash": "2dea173033a70a352ee729ce5f9c4794",
  "bytecode": "0x6101606040523480156200001257600080fd5b50604051620019ba380380620019ba83398181016040528101906200003891906200023b565b848073ffffffffffffffffffffffffffffffffffffffff1660808173ffffffffffffffffffffffffffffffffffffffff1681525050508560a081815250508473ffffffffffffffffffffffffffffffffffffffff166101408173ffffffffffffffffffffffffffffffffffffffff16815250508360c081815250508260e081815250508163ffffffff166101008163ffffffff16815250506000600360006101000a81548160ff02191690836001811115620000f957620000f8620002d7565b5b02179055504260018190555080610120818152505050505050505062000306565b600080fd5b6000819050919050565b62000134816200011f565b81146200014057600080fd5b50565b600081519050620001548162000129565b92915050565b600073ffffffffffffffffffffffffffffffffffffffff82169050919050565b600062000187826200015a565b9050919050565b62000199816200017a565b8114620001a557600080fd5b50565b600081519050620001b9816200018e565b92915050565b6000819050919050565b620001d481620001bf565b8114620001e057600080fd5b50565b600081519050620001f481620001c9565b92915050565b600063ffffffff82169050919050565b6200021581620001fa565b81146200022157600080fd5b50565b60008151905062000235816200020a565b92915050565b60008060008060008060c087890312156200025b576200025a6200011a565b5b60006200026b89828a0162000143565b96505060206200027e89828a01620001a8565b95505060406200029189828a01620001e3565b9450506060620002a489828a0162000143565b9350506080620002b789828a0162000224565b92505060a0620002ca89828a0162000143565b9150509295509295509295565b7f4e487b7100000000000000000000000000000000000000000000000000000000600052602160045260246000fd5b60805160a05160c05160e051610100516101205161014051611644620003766000396000610a69015260008181610627015261074e01526000610ae901526000610ac601526000610aa501526000818161027e01526104e50152600081816102a401526102f801526116446000f3fe60806040526004361061009c5760003560e01c80636e04ff0d116100645780636e04ff0d146101535780638b5b9ccc146101915780638e7ea5b2146101bc57806391ad27b4146101e7578063e55ae4e814610212578063fd6673f51461024f5761009c565b806309bc33a7146100a15780631fe543e3146100cc5780634585e33b146100f55780636b68c03c1461011e5780636c77f98914610149575b600080fd5b3480156100ad57600080fd5b506100b661027a565b6040516100c39190610c69565b60405180910390f35b3480156100d857600080fd5b506100f360048036038101906100ee9190610e1d565b6102a2565b005b34801561010157600080fd5b5061011c60048036038101906101179190610ed4565b610362565b005b34801561012a57600080fd5b5061013361045f565b6040516101409190610f98565b60405180910390f35b610151610476565b005b34801561015f57600080fd5b5061017a60048036038101906101759190610ed4565b6105e5565b60405161018892919061104d565b60405180910390f35b34801561019d57600080fd5b506101a6610693565b6040516101b3919061116d565b60405180910390f35b3480156101c857600080fd5b506101d1610721565b6040516101de91906111b0565b60405180910390f35b3480156101f357600080fd5b506101fc61074a565b6040516102099190610c69565b60405180910390f35b34801561021e57600080fd5b50610239600480360381019061023491906111cb565b610772565b60405161024691906111b0565b60405180910390f35b34801561025b57600080fd5b506102646107ba565b6040516102719190610c69565b60405180910390f35b60007f0000000000000000000000000000000000000000000000000000000000000000905090565b7f000000000000000000000000000000000000000000000000000000000000000073ffffffffffffffffffffffffffffffffffffffff163373ffffffffffffffffffffffffffffffffffffffff161461035457337f00000000000000000000000000000000000000000000000000000000000000006040517f1cf993f400000000000000000000000000000000000000000000000000000000815260040161034b9291906111f8565b60405180910390fd5b61035e82826107c7565b5050565b60003073ffffffffffffffffffffffffffffffffffffffff16636e04ff0d6040518163ffffffff1660e01b815260040161039b90611247565b6000604051808303816000875af11580156103ba573d6000803e3d6000fd5b505050506040513d6000823e3d601f19601f820116820180604052508101906103e39190611339565b509050806104525747600280549050600360009054906101000a900460ff16600181111561041457610413610f21565b5b6040517f6f118e9000000000000000000000000000000000000000000000000000000000815260040161044993929190611395565b60405180910390fd5b61045a610a3a565b505050565b6000600360009054906101000a900460ff16905090565b6000600181111561048a57610489610f21565b5b600360009054906101000a900460ff1660018111156104ac576104ab610f21565b5b146104e3576040517fa0d0d40300000000000000000000000000000000000000000000000000000000815260040160405180910390fd5b7f000000000000000000000000000000000000000000000000000000000000000034101561053d576040517f7696b16a00000000000000000000000000000000000000000000000000000000815260040160405180910390fd5b6002339080600181540180825580915050600190039060005260206000200160009091909190916101000a81548173ffffffffffffffffffffffffffffffffffffffff021916908373ffffffffffffffffffffffffffffffffffffffff1602179055503373ffffffffffffffffffffffffffffffffffffffff167f94bdfd7750425df08c2ec32beb5badbfb765ef6ae69dd9ced5a8730c791f7d6d60405160405180910390a2565b6000606060008060018111156105fe576105fd610f21565b5b600360009054906101000a900460ff1660018111156106205761061f610f21565b5b14905060007f00000000000000000000000000000000000000000000000000000000000000006001544261065491906113fb565b119050600080600280549050119050600080471190508380156106745750825b801561067d5750815b80156106865750805b9550505050509250929050565b6060600280548060200260200160405190810160405280929190818152602001828054801561071757602002820191906000526020600020905b8160009054906101000a900473ffffffffffffffffffffffffffffffffffffffff1673ffffffffffffffffffffffffffffffffffffffff16815260200190600101908083116106cd575b5050505050905090565b60008060009054906101000a900473ffffffffffffffffffffffffffffffffffffffff16905090565b60007f0000000000000000000000000000000000000000000000000000000000000000905090565b6000600282815481106107885761078761142f565b5b9060005260206000200160009054906101000a900473ffffffffffffffffffffffffffffffffffffffff169050919050565b6000600280549050905090565b6000600280549050826000815181106107e3576107e261142f565b5b60200260200101516107f5919061148d565b905060006002828154811061080d5761080c61142f565b5b9060005260206000200160009054906101000a900473ffffffffffffffffffffffffffffffffffffffff169050806000806101000a81548173ffffffffffffffffffffffffffffffffffffffff021916908373ffffffffffffffffffffffffffffffffffffffff16021790555060008060009054906101000a900473ffffffffffffffffffffffffffffffffffffffff1673ffffffffffffffffffffffffffffffffffffffff16476040516108c1906114ec565b60006040518083038185875af1925050503d80600081146108fe576040519150601f19603f3d011682016040523d82523d6000602084013e610903565b606091505b505090508061093e576040517f0c24f92d00000000000000000000000000000000000000000000000000000000815260040160405180910390fd5b60008054906101000a900473ffffffffffffffffffffffffffffffffffffffff1673ffffffffffffffffffffffffffffffffffffffff167f745c90b656b4aafe296c8ca35aeacfe56cb96c90e1d320e5da643fff1051b6c060405160405180910390a2600067ffffffffffffffff8111156109bc576109bb610cda565b5b6040519080825280602002602001820160405280156109ea5781602001602082028036833780820191505090505b5060029080519060200190610a00929190610ba9565b50426001819055506000600360006101000a81548160ff02191690836001811115610a2e57610a2d610f21565b5b02179055505050505050565b6001600360006101000a81548160ff02191690836001811115610a6057610a5f610f21565b5b021790555060007f000000000000000000000000000000000000000000000000000000000000000073ffffffffffffffffffffffffffffffffffffffff16635d3b1d307f00000000000000000000000000000000000000000000000000000000000000007f000000000000000000000000000000000000000000000000000000000000000060037f000000000000000000000000000000000000000000000000000000000000000060016040518663ffffffff1660e01b8152600401610b2a959493929190611579565b6020604051808303816000875af1158015610b49573d6000803e3d6000fd5b505050506040513d601f19601f82011682018060405250810190610b6d91906115e1565b90507f8acc5d490c17fa9cee3362d28426382e3c6ef85ee7f6902050b15e5e6994934a81604051610b9e9190610c69565b60405180910390a150565b828054828255906000526020600020908101928215610c22579160200282015b82811115610c215782518260006101000a81548173ffffffffffffffffffffffffffffffffffffffff021916908373ffffffffffffffffffffffffffffffffffffffff16021790555091602001919060010190610bc9565b5b509050610c2f9190610c33565b5090565b5b80821115610c4c576000816000905550600101610c34565b5090565b6000819050919050565b610c6381610c50565b82525050565b6000602082019050610c7e6000830184610c5a565b92915050565b6000604051905090565b600080fd5b600080fd5b610ca181610c50565b8114610cac57600080fd5b50565b600081359050610cbe81610c98565b92915050565b600080fd5b6000601f19601f8301169050919050565b7f4e487b7100000000000000000000000000000000000000000000000000000000600052604160045260246000fd5b610d1282610cc9565b810181811067ffffffffffffffff82111715610d3157610d30610cda565b5b80604052505050565b6000610d44610c84565b9050610d508282610d09565b919050565b600067ffffffffffffffff821115610d7057610d6f610cda565b5b602082029050602081019050919050565b600080fd5b6000610d99610d9484610d55565b610d3a565b90508083825260208201905060208402830185811115610dbc57610dbb610d81565b5b835b81811015610de55780610dd18882610caf565b845260208401935050602081019050610dbe565b5050509392505050565b600082601f830112610e0457610e03610cc4565b5b8135610e14848260208601610d86565b91505092915050565b60008060408385031215610e3457610e33610c8e565b5b6000610e4285828601610caf565b925050602083013567ffffffffffffffff811115610e6357610e62610c93565b5b610e6f85828601610def565b9150509250929050565b600080fd5b60008083601f840112610e9457610e93610cc4565b5b8235905067ffffffffffffffff811115610eb157610eb0610e79565b5b602083019150836001820283011115610ecd57610ecc610d81565b5b9250929050565b60008060208385031215610eeb57610eea610c8e565b5b600083013567ffffffffffffffff811115610f0957610f08610c93565b5b610f1585828601610e7e565b92509250509250929050565b7f4e487b7100000000000000000000000000000000000000000000000000000000600052602160045260246000fd5b60028110610f6157610f60610f21565b5b50565b6000819050610f7282610f50565b919050565b6000610f8282610f64565b9050919050565b610f9281610f77565b82525050565b6000602082019050610fad6000830184610f89565b92915050565b60008115159050919050565b610fc881610fb3565b82525050565b600081519050919050565b600082825260208201905092915050565b60005b83811015611008578082015181840152602081019050610fed565b60008484015250505050565b600061101f82610fce565b6110298185610fd9565b9350611039818560208601610fea565b61104281610cc9565b840191505092915050565b60006040820190506110626000830185610fbf565b81810360208301526110748184611014565b90509392505050565b600081519050919050565b600082825260208201905092915050565b6000819050602082019050919050565b600073ffffffffffffffffffffffffffffffffffffffff82169050919050565b60006110d4826110a9565b9050919050565b6110e4816110c9565b82525050565b60006110f683836110db565b60208301905092915050565b6000602082019050919050565b600061111a8261107d565b6111248185611088565b935061112f83611099565b8060005b8381101561116057815161114788826110ea565b975061115283611102565b925050600181019050611133565b5085935050505092915050565b60006020820190508181036000830152611187818461110f565b905092915050565b600061119a826110a9565b9050919050565b6111aa8161118f565b82525050565b60006020820190506111c560008301846111a1565b92915050565b6000602082840312156111e1576111e0610c8e565b5b60006111ef84828501610caf565b91505092915050565b600060408201905061120d60008301856111a1565b61121a60208301846111a1565b9392505050565b50565b6000611231600083610fd9565b915061123c82611221565b600082019050919050565b6000602082019050818103600083015261126081611224565b9050919050565b61127081610fb3565b811461127b57600080fd5b50565b60008151905061128d81611267565b92915050565b600080fd5b600067ffffffffffffffff8211156112b3576112b2610cda565b5b6112bc82610cc9565b9050602081019050919050565b60006112dc6112d784611298565b610d3a565b9050828152602081018484840111156112f8576112f7611293565b5b611303848285610fea565b509392505050565b600082601f8301126113205761131f610cc4565b5b81516113308482602086016112c9565b91505092915050565b600080604083850312156113505761134f610c8e565b5b600061135e8582860161127e565b925050602083015167ffffffffffffffff81111561137f5761137e610c93565b5b61138b8582860161130b565b9150509250929050565b60006060820190506113aa6000830186610c5a565b6113b76020830185610c5a565b6113c46040830184610c5a565b949350505050565b7f4e487b7100000000000000000000000000000000000000000000000000000000600052601160045260246000fd5b600061140682610c50565b915061141183610c50565b9250828203905081811115611429576114286113cc565b5b92915050565b7f4e487b7100000000000000000000000000000000000000000000000000000000600052603260045260246000fd5b7f4e487b7100000000000000000000000000000000000000000000000000000000600052601260045260246000fd5b600061149882610c50565b91506114a383610c50565b9250826114b3576114b261145e565b5b828206905092915050565b600081905092915050565b60006114d66000836114be565b91506114e182611221565b600082019050919050565b60006114f7826114c9565b9150819050919050565b6000819050919050565b61151481611501565b82525050565b600067ffffffffffffffff82169050919050565b6115378161151a565b82525050565b600061ffff82169050919050565b6115548161153d565b82525050565b600063ffffffff82169050919050565b6115738161155a565b82525050565b600060a08201905061158e600083018861150b565b61159b602083018761152e565b6115a8604083018661154b565b6115b5606083018561156a565b6115c2608083018461156a565b9695505050505050565b6000815190506115db81610c98565b92915050565b6000602082840312156115f7576115f6610c8e565b5b6000611605848285016115cc565b9150509291505056fea26469706673582212208b0ce6a1bf2ffb64e6750a46627eb788af4a9040fb6b44a340ba1cd63058c02c64736f6c63430008180033",
  "devdoc": {
    "author": "Awonugbs Seun",
    "details": "This contract imports some external contracts VRFConsumerBaseV2 and AutomationCompatibleInterface",
    "kind": "dev",
    "methods": {},
    "title": "Lottery Smart Contract",
    "version": 1
  },
  "userdoc": {
    "kind": "user",
    "methods": {},
    "notice": "Practice project",
    "version": 1
  },
  "storageLayout": {
    "storage": [
      {
        "astId": 269,
        "contract": "contracts/Lottery.sol:Lottery",
        "label": "winner",
        "offset": 0,
        "slot": "0",
        "type": "t_address"
      },
      {
        "astId": 271,
        "contract": "contracts/Lottery.sol:Lottery",
        "label": "lastBlockTimestamp",
        "offset": 0,
        "slot": "1",
        "type": "t_uint256"
      },
      {
        "astId": 274,
        "contract": "contracts/Lottery.sol:Lottery",
        "label": "players",
        "offset": 0,
        "slot": "2",
        "type": "t_array(t_address_payable)dyn_storage"
      },
      {
        "astId": 277,
        "contract": "contracts/Lottery.sol:Lottery",
        "label": "lotteryState",
        "offset": 0,
        "slot": "3",
        "type": "t_enum(LotteryState)251"
      }
    ],
    "types": {
      "t_address": {
        "encoding": "inplace",
        "label": "address",
        "numberOfBytes": "20"
      },
      "t_address_payable": {
        "encoding": "inplace",
        "label": "address payable",
        "numberOfBytes": "20"
      },
      "t_array(t_address_payable)dyn_storage": {
        "base": "t_address_payable",
        "encoding": "dynamic_array",
        "label": "address payable[]",
        "numberOfBytes": "32"
      },
      "t_enum(LotteryState)251": {
        "encoding": "inplace",
        "label": "enum Lottery.LotteryState",
        "numberOfBytes": "1"
      },
      "t_uint256": {
        "encoding": "inplace",
        "label": "uint256",
        "numberOfBytes": "32"
      }
    }
  }
}